{
  "contractName": "KIP17",
  "abi": [
    {
      "inputs": [
        {
          "internalType": "string",
          "name": "__name",
          "type": "string"
        },
        {
          "internalType": "string",
          "name": "__symbol",
          "type": "string"
        }
      ],
      "stateMutability": "nonpayable",
      "type": "constructor"
    },
    {
      "anonymous": false,
      "inputs": [
        {
          "indexed": true,
          "internalType": "address",
          "name": "owner",
          "type": "address"
        },
        {
          "indexed": true,
          "internalType": "address",
          "name": "approved",
          "type": "address"
        },
        {
          "indexed": true,
          "internalType": "uint256",
          "name": "tokenId",
          "type": "uint256"
        }
      ],
      "name": "Approval",
      "type": "event"
    },
    {
      "anonymous": false,
      "inputs": [
        {
          "indexed": true,
          "internalType": "address",
          "name": "owner",
          "type": "address"
        },
        {
          "indexed": true,
          "internalType": "address",
          "name": "operator",
          "type": "address"
        },
        {
          "indexed": false,
          "internalType": "bool",
          "name": "approved",
          "type": "bool"
        }
      ],
      "name": "ApprovalForAll",
      "type": "event"
    },
    {
      "anonymous": false,
      "inputs": [
        {
          "indexed": true,
          "internalType": "address",
          "name": "account",
          "type": "address"
        }
      ],
      "name": "MinterAdded",
      "type": "event"
    },
    {
      "anonymous": false,
      "inputs": [
        {
          "indexed": true,
          "internalType": "address",
          "name": "account",
          "type": "address"
        }
      ],
      "name": "MinterRemoved",
      "type": "event"
    },
    {
      "anonymous": false,
      "inputs": [
        {
          "indexed": true,
          "internalType": "address",
          "name": "from",
          "type": "address"
        },
        {
          "indexed": true,
          "internalType": "address",
          "name": "to",
          "type": "address"
        },
        {
          "indexed": true,
          "internalType": "uint256",
          "name": "tokenId",
          "type": "uint256"
        }
      ],
      "name": "Transfer",
      "type": "event"
    },
    {
      "inputs": [
        {
          "internalType": "address",
          "name": "account",
          "type": "address"
        }
      ],
      "name": "addMinter",
      "outputs": [],
      "stateMutability": "nonpayable",
      "type": "function"
    },
    {
      "inputs": [
        {
          "internalType": "address",
          "name": "account",
          "type": "address"
        }
      ],
      "name": "isMinter",
      "outputs": [
        {
          "internalType": "bool",
          "name": "",
          "type": "bool"
        }
      ],
      "stateMutability": "view",
      "type": "function"
    },
    {
      "inputs": [],
      "name": "renounceMinter",
      "outputs": [],
      "stateMutability": "nonpayable",
      "type": "function"
    },
    {
      "inputs": [
        {
          "internalType": "bytes4",
          "name": "interfaceId",
          "type": "bytes4"
        }
      ],
      "name": "supportsInterface",
      "outputs": [
        {
          "internalType": "bool",
          "name": "",
          "type": "bool"
        }
      ],
      "stateMutability": "view",
      "type": "function"
    },
    {
      "inputs": [
        {
          "internalType": "address",
          "name": "owner",
          "type": "address"
        }
      ],
      "name": "balanceOf",
      "outputs": [
        {
          "internalType": "uint256",
          "name": "",
          "type": "uint256"
        }
      ],
      "stateMutability": "view",
      "type": "function"
    },
    {
      "inputs": [
        {
          "internalType": "uint256",
          "name": "tokenId",
          "type": "uint256"
        }
      ],
      "name": "ownerOf",
      "outputs": [
        {
          "internalType": "address",
          "name": "",
          "type": "address"
        }
      ],
      "stateMutability": "view",
      "type": "function"
    },
    {
      "inputs": [
        {
          "internalType": "address",
          "name": "to",
          "type": "address"
        },
        {
          "internalType": "uint256",
          "name": "tokenId",
          "type": "uint256"
        }
      ],
      "name": "approve",
      "outputs": [],
      "stateMutability": "nonpayable",
      "type": "function"
    },
    {
      "inputs": [
        {
          "internalType": "uint256",
          "name": "tokenId",
          "type": "uint256"
        }
      ],
      "name": "getApproved",
      "outputs": [
        {
          "internalType": "address",
          "name": "",
          "type": "address"
        }
      ],
      "stateMutability": "view",
      "type": "function"
    },
    {
      "inputs": [
        {
          "internalType": "address",
          "name": "to",
          "type": "address"
        },
        {
          "internalType": "bool",
          "name": "approved",
          "type": "bool"
        }
      ],
      "name": "setApprovalForAll",
      "outputs": [],
      "stateMutability": "nonpayable",
      "type": "function"
    },
    {
      "inputs": [
        {
          "internalType": "address",
          "name": "owner",
          "type": "address"
        },
        {
          "internalType": "address",
          "name": "operator",
          "type": "address"
        }
      ],
      "name": "isApprovedForAll",
      "outputs": [
        {
          "internalType": "bool",
          "name": "",
          "type": "bool"
        }
      ],
      "stateMutability": "view",
      "type": "function"
    },
    {
      "inputs": [
        {
          "internalType": "address",
          "name": "from",
          "type": "address"
        },
        {
          "internalType": "address",
          "name": "to",
          "type": "address"
        },
        {
          "internalType": "uint256",
          "name": "tokenId",
          "type": "uint256"
        }
      ],
      "name": "transferFrom",
      "outputs": [],
      "stateMutability": "nonpayable",
      "type": "function"
    },
    {
      "inputs": [
        {
          "internalType": "address",
          "name": "from",
          "type": "address"
        },
        {
          "internalType": "address",
          "name": "to",
          "type": "address"
        },
        {
          "internalType": "uint256",
          "name": "tokenId",
          "type": "uint256"
        }
      ],
      "name": "safeTransferFrom",
      "outputs": [],
      "stateMutability": "nonpayable",
      "type": "function"
    },
    {
      "inputs": [
        {
          "internalType": "address",
          "name": "from",
          "type": "address"
        },
        {
          "internalType": "address",
          "name": "to",
          "type": "address"
        },
        {
          "internalType": "uint256",
          "name": "tokenId",
          "type": "uint256"
        },
        {
          "internalType": "bytes",
          "name": "_data",
          "type": "bytes"
        }
      ],
      "name": "safeTransferFrom",
      "outputs": [],
      "stateMutability": "nonpayable",
      "type": "function"
    },
    {
      "inputs": [
        {
          "internalType": "address",
          "name": "owner",
          "type": "address"
        },
        {
          "internalType": "uint256",
          "name": "index",
          "type": "uint256"
        }
      ],
      "name": "tokenOfOwnerByIndex",
      "outputs": [
        {
          "internalType": "uint256",
          "name": "",
          "type": "uint256"
        }
      ],
      "stateMutability": "view",
      "type": "function"
    },
    {
      "inputs": [],
      "name": "totalSupply",
      "outputs": [
        {
          "internalType": "uint256",
          "name": "",
          "type": "uint256"
        }
      ],
      "stateMutability": "view",
      "type": "function"
    },
    {
      "inputs": [
        {
          "internalType": "uint256",
          "name": "index",
          "type": "uint256"
        }
      ],
      "name": "tokenByIndex",
      "outputs": [
        {
          "internalType": "uint256",
          "name": "",
          "type": "uint256"
        }
      ],
      "stateMutability": "view",
      "type": "function"
    },
    {
      "inputs": [],
      "name": "name",
      "outputs": [
        {
          "internalType": "string",
          "name": "",
          "type": "string"
        }
      ],
      "stateMutability": "view",
      "type": "function"
    },
    {
      "inputs": [],
      "name": "symbol",
      "outputs": [
        {
          "internalType": "string",
          "name": "",
          "type": "string"
        }
      ],
      "stateMutability": "view",
      "type": "function"
    },
    {
      "inputs": [
        {
          "internalType": "uint256",
          "name": "tokenId",
          "type": "uint256"
        }
      ],
      "name": "tokenURI",
      "outputs": [
        {
          "internalType": "string",
          "name": "",
          "type": "string"
        }
      ],
      "stateMutability": "view",
      "type": "function"
    }
  ],
  "bytecode": "0x60806040523480156200001157600080fd5b50604051620025e7380380620025e7833981016040819052620000349162000355565b620000466301ffc9a760e01b620000bb565b620000513362000116565b620000636380ac58cd60e01b620000bb565b6200007563780e9d6360e01b620000bb565b81516200008a90600a90602085019062000204565b508051620000a090600b90602084019062000204565b50620000b3635b5e139f60e01b620000bb565b5050620004bf565b6001600160e01b03198082161415620000f15760405162461bcd60e51b8152600401620000e890620003f3565b60405180910390fd5b6001600160e01b0319166000908152602081905260409020805460ff19166001179055565b620001318160016200016860201b62000ac01790919060201c565b6040516001600160a01b038216907f6ae172837ea30b801fbfcdd4108aa1d5bf8ff775444fd70256b44e6bf3dfc3f690600090a250565b620001748282620001b9565b15620001945760405162461bcd60e51b8152600401620000e890620003bc565b6001600160a01b0316600090815260209190915260409020805460ff19166001179055565b60006001600160a01b038216620001e45760405162461bcd60e51b8152600401620000e8906200042a565b506001600160a01b03166000908152602091909152604090205460ff1690565b82805462000212906200046c565b90600052602060002090601f01602090048101928262000236576000855562000281565b82601f106200025157805160ff191683800117855562000281565b8280016001018555821562000281579182015b828111156200028157825182559160200191906001019062000264565b506200028f92915062000293565b5090565b5b808211156200028f576000815560010162000294565b600082601f830112620002bb578081fd5b81516001600160401b0380821115620002d857620002d8620004a9565b6040516020601f8401601f1916820181018381118382101715620003005762000300620004a9565b604052838252858401810187101562000317578485fd5b8492505b838310156200033a57858301810151828401820152918201916200031b565b838311156200034b57848185840101525b5095945050505050565b6000806040838503121562000368578182fd5b82516001600160401b03808211156200037f578384fd5b6200038d86838701620002aa565b93506020850151915080821115620003a3578283fd5b50620003b285828601620002aa565b9150509250929050565b6020808252601f908201527f526f6c65733a206163636f756e7420616c72656164792068617320726f6c6500604082015260600190565b6020808252601b908201527f4b495031333a20696e76616c696420696e746572666163652069640000000000604082015260600190565b60208082526022908201527f526f6c65733a206163636f756e7420697320746865207a65726f206164647265604082015261737360f01b606082015260800190565b6002810460018216806200048157607f821691505b60208210811415620004a357634e487b7160e01b600052602260045260246000fd5b50919050565b634e487b7160e01b600052604160045260246000fd5b61211880620004cf6000396000f3fe608060405234801561001057600080fd5b50600436106101515760003560e01c80636352211e116100cd578063a22cb46511610081578063b88d4fde11610066578063b88d4fde14610299578063c87b56dd146102ac578063e985e9c5146102bf57610151565b8063a22cb46514610273578063aa271e1a1461028657610151565b806395d89b41116100b257806395d89b4114610250578063983b2d5614610258578063986502751461026b57610151565b80636352211e1461022a57806370a082311461023d57610151565b806318160ddd116101245780632f745c59116101095780632f745c59146101f157806342842e0e146102045780634f6ccce71461021757610151565b806318160ddd146101c957806323b872dd146101de57610151565b806301ffc9a71461015657806306fdde031461017f578063081812fc14610194578063095ea7b3146101b4575b600080fd5b61016961016436600461184a565b6102d2565b604051610176919061196a565b60405180910390f35b61018761030d565b6040516101769190611975565b6101a76101a2366004611882565b61039f565b6040516101769190611900565b6101c76101c2366004611821565b610412565b005b6101d1610565565b6040516101769190611f9e565b6101c76101ec3660046116c2565b61056b565b6101d16101ff366004611821565b6105bb565b6101c76102123660046116c2565b61066f565b6101d1610225366004611882565b61068a565b6101a7610238366004611882565b610718565b6101d161024b366004611676565b61077a565b6101876107f7565b6101c7610266366004611676565b610806565b6101c7610851565b6101c76102813660046117e7565b61085c565b610169610294366004611676565b610946565b6101c76102a73660046116fd565b610953565b6101876102ba366004611882565b6109a6565b6101696102cd366004611690565b610a85565b7fffffffff00000000000000000000000000000000000000000000000000000000811660009081526020819052604090205460ff165b919050565b6060600a805461031c90612002565b80601f016020809104026020016040519081016040528092919081815260200182805461034890612002565b80156103955780601f1061036a57610100808354040283529160200191610395565b820191906000526020600020905b81548152906001019060200180831161037857829003601f168201915b5050505050905090565b60006103aa82610b51565b6103e9576040517f08c379a00000000000000000000000000000000000000000000000000000000081526004016103e090611e87565b60405180910390fd5b5060009081526003602052604090205473ffffffffffffffffffffffffffffffffffffffff1690565b600061041d82610718565b90508073ffffffffffffffffffffffffffffffffffffffff168373ffffffffffffffffffffffffffffffffffffffff161415610485576040517f08c379a00000000000000000000000000000000000000000000000000000000081526004016103e090611a79565b3373ffffffffffffffffffffffffffffffffffffffff821614806104ae57506104ae8133610a85565b6104e4576040517f08c379a00000000000000000000000000000000000000000000000000000000081526004016103e090611ee4565b60008281526003602052604080822080547fffffffffffffffffffffffff00000000000000000000000000000000000000001673ffffffffffffffffffffffffffffffffffffffff87811691821790925591518593918516917f8c5be1e5ebec7d5bd14f71427d1e84f3dd0314c0f7b2291e5b200ac8c7c3b92591a4505050565b60085490565b6105753382610b7b565b6105ab576040517f08c379a00000000000000000000000000000000000000000000000000000000081526004016103e090611c59565b6105b6838383610c4e565b505050565b60006105c68361077a565b82106105fe576040517f08c379a00000000000000000000000000000000000000000000000000000000081526004016103e090611aae565b73ffffffffffffffffffffffffffffffffffffffff8316600090815260066020526040902080548390811061065c577f4e487b7100000000000000000000000000000000000000000000000000000000600052603260045260246000fd5b9060005260206000200154905092915050565b6105b683838360405180602001604052806000815250610953565b6000610694610565565b82106106cc576040517f08c379a00000000000000000000000000000000000000000000000000000000081526004016103e090611e2a565b60088281548110610706577f4e487b7100000000000000000000000000000000000000000000000000000000600052603260045260246000fd5b90600052602060002001549050919050565b60008181526002602052604081205473ffffffffffffffffffffffffffffffffffffffff1680610774576040517f08c379a00000000000000000000000000000000000000000000000000000000081526004016103e090611bc5565b92915050565b600073ffffffffffffffffffffffffffffffffffffffff82166107c9576040517f08c379a00000000000000000000000000000000000000000000000000000000081526004016103e090611d70565b73ffffffffffffffffffffffffffffffffffffffff8216600090815260046020526040902061077490610e2d565b6060600b805461031c90612002565b61080f33610946565b610845576040517f08c379a00000000000000000000000000000000000000000000000000000000081526004016103e090611b0b565b61084e81610e31565b50565b61085a33610e80565b565b73ffffffffffffffffffffffffffffffffffffffff82163314156108ac576040517f08c379a00000000000000000000000000000000000000000000000000000000081526004016103e090611c22565b33600081815260056020908152604080832073ffffffffffffffffffffffffffffffffffffffff871680855292529182902080547fffffffffffffffffffffffffffffffffffffffffffffffffffffffffffffff001685151517905590519091907f17307eab39ab6107e8899845ad3d59bd9653f200f220920489ca2b5937696c319061093a90859061196a565b60405180910390a35050565b6000610774600183610ecf565b61095e84848461056b565b61096a84848484610f4b565b6109a0576040517f08c379a00000000000000000000000000000000000000000000000000000000081526004016103e090611d13565b50505050565b60606109b182610b51565b6109e7576040517f08c379a00000000000000000000000000000000000000000000000000000000081526004016103e0906119bf565b6000828152600c602052604090208054610a0090612002565b80601f0160208091040260200160405190810160405280929190818152602001828054610a2c90612002565b8015610a795780601f10610a4e57610100808354040283529160200191610a79565b820191906000526020600020905b815481529060010190602001808311610a5c57829003601f168201915b50505050509050919050565b73ffffffffffffffffffffffffffffffffffffffff918216600090815260056020908152604080832093909416825291909152205460ff1690565b610aca8282610ecf565b15610b01576040517f08c379a00000000000000000000000000000000000000000000000000000000081526004016103e090611988565b73ffffffffffffffffffffffffffffffffffffffff1660009081526020919091526040902080547fffffffffffffffffffffffffffffffffffffffffffffffffffffffffffffff00166001179055565b60009081526002602052604090205473ffffffffffffffffffffffffffffffffffffffff16151590565b6000610b8682610b51565b610bbc576040517f08c379a00000000000000000000000000000000000000000000000000000000081526004016103e090611f41565b6000610bc783610718565b90508073ffffffffffffffffffffffffffffffffffffffff168473ffffffffffffffffffffffffffffffffffffffff161480610c3657508373ffffffffffffffffffffffffffffffffffffffff16610c1e8461039f565b73ffffffffffffffffffffffffffffffffffffffff16145b80610c465750610c468185610a85565b949350505050565b8273ffffffffffffffffffffffffffffffffffffffff16610c6e82610718565b73ffffffffffffffffffffffffffffffffffffffff1614610cbb576040517f08c379a00000000000000000000000000000000000000000000000000000000081526004016103e090611dcd565b73ffffffffffffffffffffffffffffffffffffffff8216610d08576040517f08c379a00000000000000000000000000000000000000000000000000000000081526004016103e090611a1c565b610d1181611285565b73ffffffffffffffffffffffffffffffffffffffff83166000908152600460205260409020610d3f906112e5565b73ffffffffffffffffffffffffffffffffffffffff82166000908152600460205260409020610d6d906112f6565b600081815260026020526040902080547fffffffffffffffffffffffff00000000000000000000000000000000000000001673ffffffffffffffffffffffffffffffffffffffff8416179055610dc38382611313565b610dcd82826114d7565b808273ffffffffffffffffffffffffffffffffffffffff168473ffffffffffffffffffffffffffffffffffffffff167fddf252ad1be2c89b69c2b068fc378daa952ba7f163c4a11628f55a4df523b3ef60405160405180910390a4505050565b5490565b610e3c600182610ac0565b60405173ffffffffffffffffffffffffffffffffffffffff8216907f6ae172837ea30b801fbfcdd4108aa1d5bf8ff775444fd70256b44e6bf3dfc3f690600090a250565b610e8b600182611522565b60405173ffffffffffffffffffffffffffffffffffffffff8216907fe94479a9f7e1952cc78f2d6baab678adc1b772d936c6583def489e524cb6669290600090a250565b600073ffffffffffffffffffffffffffffffffffffffff8216610f1e576040517f08c379a00000000000000000000000000000000000000000000000000000000081526004016103e090611cb6565b5073ffffffffffffffffffffffffffffffffffffffff166000908152602091909152604090205460ff1690565b6000806060610f6f8673ffffffffffffffffffffffffffffffffffffffff166115af565b610f7e57600192505050610c46565b8573ffffffffffffffffffffffffffffffffffffffff1663150b7a0260e01b33898888604051602401610fb49493929190611921565b604080517fffffffffffffffffffffffffffffffffffffffffffffffffffffffffffffffe08184030181529181526020820180517bffffffffffffffffffffffffffffffffffffffffffffffffffffffff167fffffffff0000000000000000000000000000000000000000000000000000000090941693909317909252905161103d91906118e4565b6000604051808303816000865af19150503d806000811461107a576040519150601f19603f3d011682016040523d82523d6000602084013e61107f565b606091505b5080519193509150158015906110eb575080517f150b7a0200000000000000000000000000000000000000000000000000000000906110c79083016020908101908401611866565b7fffffffff0000000000000000000000000000000000000000000000000000000016145b156110fb57600192505050610c46565b8573ffffffffffffffffffffffffffffffffffffffff16636745782b60e01b338988886040516024016111319493929190611921565b604080517fffffffffffffffffffffffffffffffffffffffffffffffffffffffffffffffe08184030181529181526020820180517bffffffffffffffffffffffffffffffffffffffffffffffffffffffff167fffffffff000000000000000000000000000000000000000000000000000000009094169390931790925290516111ba91906118e4565b6000604051808303816000865af19150503d80600081146111f7576040519150601f19603f3d011682016040523d82523d6000602084013e6111fc565b606091505b508051919350915015801590611268575080517f6745782b00000000000000000000000000000000000000000000000000000000906112449083016020908101908401611866565b7fffffffff0000000000000000000000000000000000000000000000000000000016145b1561127857600192505050610c46565b5060009695505050505050565b60008181526003602052604090205473ffffffffffffffffffffffffffffffffffffffff161561084e57600090815260036020526040902080547fffffffffffffffffffffffff0000000000000000000000000000000000000000169055565b80546112f29060016115b5565b9055565b600181600001600082825461130b9190611fa7565b909155505050565b73ffffffffffffffffffffffffffffffffffffffff82166000908152600660205260408120546113449060016115b5565b6000838152600760205260409020549091508082146114605773ffffffffffffffffffffffffffffffffffffffff841660009081526006602052604081208054849081106113bb577f4e487b7100000000000000000000000000000000000000000000000000000000600052603260045260246000fd5b9060005260206000200154905080600660008773ffffffffffffffffffffffffffffffffffffffff1673ffffffffffffffffffffffffffffffffffffffff1681526020019081526020016000208381548110611440577f4e487b7100000000000000000000000000000000000000000000000000000000600052603260045260246000fd5b600091825260208083209091019290925591825260079052604090208190555b73ffffffffffffffffffffffffffffffffffffffff841660009081526006602052604090208054806114bb577f4e487b7100000000000000000000000000000000000000000000000000000000600052603160045260246000fd5b6001900381819060005260206000200160009055905550505050565b73ffffffffffffffffffffffffffffffffffffffff90911660009081526006602081815260408084208054868652600784529185208290559282526001810183559183529091200155565b61152c8282610ecf565b611562576040517f08c379a00000000000000000000000000000000000000000000000000000000081526004016103e090611b68565b73ffffffffffffffffffffffffffffffffffffffff1660009081526020919091526040902080547fffffffffffffffffffffffffffffffffffffffffffffffffffffffffffffff00169055565b3b151590565b60006115f783836040518060400160405280601e81526020017f536166654d6174683a207375627472616374696f6e206f766572666c6f7700008152506115fe565b9392505050565b6000818484111561163c576040517f08c379a00000000000000000000000000000000000000000000000000000000081526004016103e09190611975565b5060006116498486611fbf565b95945050505050565b803573ffffffffffffffffffffffffffffffffffffffff8116811461030857600080fd5b600060208284031215611687578081fd5b6115f782611652565b600080604083850312156116a2578081fd5b6116ab83611652565b91506116b960208401611652565b90509250929050565b6000806000606084860312156116d6578081fd5b6116df84611652565b92506116ed60208501611652565b9150604084013590509250925092565b60008060008060808587031215611712578081fd5b61171b85611652565b9350602061172a818701611652565b935060408601359250606086013567ffffffffffffffff8082111561174d578384fd5b818801915088601f830112611760578384fd5b81358181111561177257611772612085565b604051847fffffffffffffffffffffffffffffffffffffffffffffffffffffffffffffffe0601f84011682010181811084821117156117b3576117b3612085565b60405281815283820185018b10156117c9578586fd5b81858501868301379081019093019390935250939692955090935050565b600080604083850312156117f9578182fd5b61180283611652565b915060208301358015158114611816578182fd5b809150509250929050565b60008060408385031215611833578182fd5b61183c83611652565b946020939093013593505050565b60006020828403121561185b578081fd5b81356115f7816120b4565b600060208284031215611877578081fd5b81516115f7816120b4565b600060208284031215611893578081fd5b5035919050565b600081518084526118b2816020860160208601611fd6565b601f017fffffffffffffffffffffffffffffffffffffffffffffffffffffffffffffffe0169290920160200192915050565b600082516118f6818460208701611fd6565b9190910192915050565b73ffffffffffffffffffffffffffffffffffffffff91909116815260200190565b600073ffffffffffffffffffffffffffffffffffffffff808716835280861660208401525083604083015260806060830152611960608083018461189a565b9695505050505050565b901515815260200190565b6000602082526115f7602083018461189a565b6020808252601f908201527f526f6c65733a206163636f756e7420616c72656164792068617320726f6c6500604082015260600190565b6020808252602e908201527f4b495031374d657461646174613a2055524920717565727920666f72206e6f6e60408201527f6578697374656e7420746f6b656e000000000000000000000000000000000000606082015260800190565b60208082526023908201527f4b495031373a207472616e7366657220746f20746865207a65726f206164647260408201527f6573730000000000000000000000000000000000000000000000000000000000606082015260800190565b6020808252818101527f4b495031373a20617070726f76616c20746f2063757272656e74206f776e6572604082015260600190565b6020808252602a908201527f4b49503137456e756d657261626c653a206f776e657220696e646578206f757460408201527f206f6620626f756e647300000000000000000000000000000000000000000000606082015260800190565b60208082526030908201527f4d696e746572526f6c653a2063616c6c657220646f6573206e6f74206861766560408201527f20746865204d696e74657220726f6c6500000000000000000000000000000000606082015260800190565b60208082526021908201527f526f6c65733a206163636f756e7420646f6573206e6f74206861766520726f6c60408201527f6500000000000000000000000000000000000000000000000000000000000000606082015260800190565b60208082526028908201527f4b495031373a206f776e657220717565727920666f72206e6f6e65786973746560408201527f6e7420746f6b656e000000000000000000000000000000000000000000000000606082015260800190565b60208082526018908201527f4b495031373a20617070726f766520746f2063616c6c65720000000000000000604082015260600190565b60208082526030908201527f4b495031373a207472616e736665722063616c6c6572206973206e6f74206f7760408201527f6e6572206e6f7220617070726f76656400000000000000000000000000000000606082015260800190565b60208082526022908201527f526f6c65733a206163636f756e7420697320746865207a65726f20616464726560408201527f7373000000000000000000000000000000000000000000000000000000000000606082015260800190565b60208082526030908201527f4b495031373a207472616e7366657220746f206e6f6e204b495031375265636560408201527f6976657220696d706c656d656e74657200000000000000000000000000000000606082015260800190565b60208082526029908201527f4b495031373a2062616c616e636520717565727920666f7220746865207a657260408201527f6f20616464726573730000000000000000000000000000000000000000000000606082015260800190565b60208082526028908201527f4b495031373a207472616e73666572206f6620746f6b656e207468617420697360408201527f206e6f74206f776e000000000000000000000000000000000000000000000000606082015260800190565b6020808252602b908201527f4b49503137456e756d657261626c653a20676c6f62616c20696e646578206f7560408201527f74206f6620626f756e6473000000000000000000000000000000000000000000606082015260800190565b6020808252602b908201527f4b495031373a20617070726f76656420717565727920666f72206e6f6e65786960408201527f7374656e7420746f6b656e000000000000000000000000000000000000000000606082015260800190565b60208082526037908201527f4b495031373a20617070726f76652063616c6c6572206973206e6f74206f776e60408201527f6572206e6f7220617070726f76656420666f7220616c6c000000000000000000606082015260800190565b6020808252602b908201527f4b495031373a206f70657261746f7220717565727920666f72206e6f6e65786960408201527f7374656e7420746f6b656e000000000000000000000000000000000000000000606082015260800190565b90815260200190565b60008219821115611fba57611fba612056565b500190565b600082821015611fd157611fd1612056565b500390565b60005b83811015611ff1578181015183820152602001611fd9565b838111156109a05750506000910152565b60028104600182168061201657607f821691505b60208210811415612050577f4e487b7100000000000000000000000000000000000000000000000000000000600052602260045260246000fd5b50919050565b7f4e487b7100000000000000000000000000000000000000000000000000000000600052601160045260246000fd5b7f4e487b7100000000000000000000000000000000000000000000000000000000600052604160045260246000fd5b7fffffffff000000000000000000000000000000000000000000000000000000008116811461084e57600080fdfea26469706673582212202f0829432ee27bbb381cf17a1f7ee44091de629188bf80c8011e9b863ab8235764736f6c63430008000033",
  "immutableReferences": {},
  "source": "// SPDX-License-Identifier: MIT\npragma solidity ^0.8.0;\n\n/**\n * @dev Contract module which provides a basic access control mechanism, where\n * there is an account (an owner) that can be granted exclusive access to\n * specific functions.\n *\n * This module is used through inheritance. It will make available the modifier\n * `onlyOwner`, which can be aplied to your functions to restrict their use to\n * the owner.\n */\ncontract Ownable {\n    address private _owner;\n\n    event OwnershipTransferred(address indexed previousOwner, address indexed newOwner);\n\n    /**\n     * @dev Initializes the contract setting the deployer as the initial owner.\n     */\n    constructor () {\n        _owner = msg.sender;\n        emit OwnershipTransferred(address(0), _owner);\n    }\n\n    /**\n     * @dev Returns the address of the current owner.\n     */\n    function owner() public view returns (address) {\n        return _owner;\n    }\n\n    /**\n     * @dev Throws if called by any account other than the owner.\n     */\n    modifier onlyOwner() {\n        require(isOwner(), \"Ownable: caller is not the owner\");\n        _;\n    }\n\n    /**\n     * @dev Returns true if the caller is the current owner.\n     */\n    function isOwner() public view returns (bool) {\n        return msg.sender == _owner;\n    }\n\n    /**\n     * @dev Leaves the contract without owner. It will not be possible to call\n     * `onlyOwner` functions anymore. Can only be called by the current owner.\n     *\n     * > Note: Renouncing ownership will leave the contract without an owner,\n     * thereby removing any functionality that is only available to the owner.\n     */\n    function renounceOwnership() public onlyOwner {\n        emit OwnershipTransferred(_owner, address(0));\n        _owner = address(0);\n    }\n\n    /**\n     * @dev Transfers ownership of the contract to a new account (`newOwner`).\n     * Can only be called by the current owner.\n     */\n    function transferOwnership(address payable newOwner) public onlyOwner {\n        _transferOwnership(newOwner);\n    }\n\n    /**\n     * @dev Transfers ownership of the contract to a new account (`newOwner`).\n     */\n    function _transferOwnership(address payable newOwner) internal {\n        require(newOwner != address(0), \"Ownable: new owner is the zero address\");\n        emit OwnershipTransferred(_owner, newOwner);\n        _owner = newOwner;\n    }\n}\n\n\npragma solidity ^0.8.0;\n\n/**\n * @dev Interface of the KIP-13 standard, as defined in the\n * [KIP-13](http://kips.klaytn.com/KIPs/kip-13-interface_query_standard).\n *\n * Implementers can declare support of contract interfaces, which can then be\n * queried by others.\n *\n * For an implementation, see `KIP13`.\n */\ninterface IKIP13 {\n    /**\n     * @dev Returns true if this contract implements the interface defined by\n     * `interfaceId`. See the corresponding\n     * [KIP-13 section](http://kips.klaytn.com/KIPs/kip-13-interface_query_standard#how-interface-identifiers-are-defined)\n     * to learn more about how these ids are created.\n     *\n     * This function call must use less than 30 000 gas.\n     */\n    function supportsInterface(bytes4 interfaceId) external view returns (bool);\n}\n\npragma solidity ^0.8.0;\n\n/**\n * @dev Required interface of an KIP17 compliant contract.\n */\nabstract contract IKIP17 is IKIP13 {\n    event Transfer(address indexed from, address indexed to, uint256 indexed tokenId);\n    event Approval(address indexed owner, address indexed approved, uint256 indexed tokenId);\n    event ApprovalForAll(address indexed owner, address indexed operator, bool approved);\n\n    /**\n     * @dev Returns the number of NFTs in `owner`'s account.\n     */\n    function balanceOf(address owner) public virtual view returns (uint256 balance);\n\n    /**\n     * @dev Returns the owner of the NFT specified by `tokenId`.\n     */\n    function ownerOf(uint256 tokenId) public virtual view returns (address owner);\n\n    /**\n     * @dev Transfers a specific NFT (`tokenId`) from one account (`from`) to\n     * another (`to`).\n     *\n     * Requirements:\n     * - `from`, `to` cannot be zero.\n     * - `tokenId` must be owned by `from`.\n     * - If the caller is not `from`, it must be have been allowed to move this\n     * NFT by either `approve` or `setApproveForAll`.\n     */\n    function safeTransferFrom(address from, address to, uint256 tokenId) public virtual;\n\n    /**\n     * @dev Transfers a specific NFT (`tokenId`) from one account (`from`) to\n     * another (`to`).\n     *\n     * Requirements:\n     * - If the caller is not `from`, it must be approved to move this NFT by\n     * either `approve` or `setApproveForAll`.\n     */\n    function transferFrom(address from, address to, uint256 tokenId) public virtual;\n    function approve(address to, uint256 tokenId) public virtual;\n    function getApproved(uint256 tokenId) public virtual view returns (address operator);\n\n    function setApprovalForAll(address operator, bool _approved) public virtual;\n    function isApprovedForAll(address owner, address operator) public virtual view returns (bool);\n\n\n    function safeTransferFrom(address from, address to, uint256 tokenId, bytes memory data) public virtual;\n}\n\npragma solidity ^0.8.0;\n\n/**\n * @dev Wrappers over Solidity's arithmetic operations with added overflow\n * checks.\n *\n * Arithmetic operations in Solidity wrap on overflow. This can easily result\n * in bugs, because programmers usually assume that an overflow raises an\n * error, which is the standard behavior in high level programming languages.\n * `SafeMath` restores this intuition by reverting the transaction when an\n * operation overflows.\n *\n * Using this library instead of the unchecked operations eliminates an entire\n * class of bugs, so it's recommended to use it always.\n */\nlibrary SafeMath {\n    /**\n     * @dev Returns the addition of two unsigned integers, reverting on\n     * overflow.\n     *\n     * Counterpart to Solidity's `+` operator.\n     *\n     * Requirements:\n     * - Addition cannot overflow.\n     */\n    function add(uint256 a, uint256 b) internal pure returns (uint256) {\n        uint256 c = a + b;\n        require(c >= a, \"SafeMath: addition overflow\");\n\n        return c;\n    }\n\n    /**\n     * @dev Returns the subtraction of two unsigned integers, reverting on\n     * overflow (when the result is negative).\n     *\n     * Counterpart to Solidity's `-` operator.\n     *\n     * Requirements:\n     * - Subtraction cannot overflow.\n     */\n    function sub(uint256 a, uint256 b) internal pure returns (uint256) {\n        return sub(a, b, \"SafeMath: subtraction overflow\");\n    }\n\n    /**\n     * @dev Returns the subtraction of two unsigned integers, reverting with custom message on\n     * overflow (when the result is negative).\n     *\n     * Counterpart to Solidity's `-` operator.\n     *\n     * Requirements:\n     * - Subtraction cannot overflow.\n     *\n     * _Available since v2.4.0._\n     */\n    function sub(uint256 a, uint256 b, string memory errorMessage) internal pure returns (uint256) {\n        require(b <= a, errorMessage);\n        uint256 c = a - b;\n\n        return c;\n    }\n\n    /**\n     * @dev Returns the multiplication of two unsigned integers, reverting on\n     * overflow.\n     *\n     * Counterpart to Solidity's `*` operator.\n     *\n     * Requirements:\n     * - Multiplication cannot overflow.\n     */\n    function mul(uint256 a, uint256 b) internal pure returns (uint256) {\n        // Gas optimization: this is cheaper than requiring 'a' not being zero, but the\n        // benefit is lost if 'b' is also tested.\n        // See: https://github.com/OpenZeppelin/openzeppelin-contracts/pull/522\n        if (a == 0) {\n            return 0;\n        }\n\n        uint256 c = a * b;\n        require(c / a == b, \"SafeMath: multiplication overflow\");\n\n        return c;\n    }\n\n    /**\n     * @dev Returns the integer division of two unsigned integers. Reverts on\n     * division by zero. The result is rounded towards zero.\n     *\n     * Counterpart to Solidity's `/` operator. Note: this function uses a\n     * `revert` opcode (which leaves remaining gas untouched) while Solidity\n     * uses an invalid opcode to revert (consuming all remaining gas).\n     *\n     * Requirements:\n     * - The divisor cannot be zero.\n     */\n    function div(uint256 a, uint256 b) internal pure returns (uint256) {\n        return div(a, b, \"SafeMath: division by zero\");\n    }\n\n    /**\n     * @dev Returns the integer division of two unsigned integers. Reverts with custom message on\n     * division by zero. The result is rounded towards zero.\n     *\n     * Counterpart to Solidity's `/` operator. Note: this function uses a\n     * `revert` opcode (which leaves remaining gas untouched) while Solidity\n     * uses an invalid opcode to revert (consuming all remaining gas).\n     *\n     * Requirements:\n     * - The divisor cannot be zero.\n     *\n     * _Available since v2.4.0._\n     */\n    function div(uint256 a, uint256 b, string memory errorMessage) internal pure returns (uint256) {\n        // Solidity only automatically asserts when dividing by 0\n        require(b > 0, errorMessage);\n        uint256 c = a / b;\n        // assert(a == b * c + a % b); // There is no case in which this doesn't hold\n\n        return c;\n    }\n\n    /**\n     * @dev Returns the remainder of dividing two unsigned integers. (unsigned integer modulo),\n     * Reverts when dividing by zero.\n     *\n     * Counterpart to Solidity's `%` operator. This function uses a `revert`\n     * opcode (which leaves remaining gas untouched) while Solidity uses an\n     * invalid opcode to revert (consuming all remaining gas).\n     *\n     * Requirements:\n     * - The divisor cannot be zero.\n     */\n    function mod(uint256 a, uint256 b) internal pure returns (uint256) {\n        return mod(a, b, \"SafeMath: modulo by zero\");\n    }\n\n    /**\n     * @dev Returns the remainder of dividing two unsigned integers. (unsigned integer modulo),\n     * Reverts with custom message when dividing by zero.\n     *\n     * Counterpart to Solidity's `%` operator. This function uses a `revert`\n     * opcode (which leaves remaining gas untouched) while Solidity uses an\n     * invalid opcode to revert (consuming all remaining gas).\n     *\n     * Requirements:\n     * - The divisor cannot be zero.\n     *\n     * _Available since v2.4.0._\n     */\n    function mod(uint256 a, uint256 b, string memory errorMessage) internal pure returns (uint256) {\n        require(b != 0, errorMessage);\n        return a % b;\n    }\n}\n\npragma solidity ^0.8.0;\n\n/**\n * @title Counters\n * @author Matt Condon (@shrugs)\n * @dev Provides counters that can only be incremented or decremented by one. This can be used e.g. to track the number\n * of elements in a mapping, issuing ERC721 ids, or counting request ids.\n *\n * Include with `using Counters for Counters.Counter;`\n * Since it is not possible to overflow a 256 bit integer with increments of one, `increment` can skip the SafeMath\n * overflow check, thereby saving gas. This does assume however correct usage, in that the underlying `_value` is never\n * directly accessed.\n */\nlibrary Counters {\n    using SafeMath for uint256;\n\n    struct Counter {\n        // This variable should never be directly accessed by users of the library: interactions must be restricted to\n        // the library's function. As of Solidity v0.5.2, this cannot be enforced, though there is a proposal to add\n        // this feature: see https://github.com/ethereum/solidity/issues/4637\n        uint256 _value; // default: 0\n    }\n\n    function current(Counter storage counter) internal view returns (uint256) {\n        return counter._value;\n    }\n\n    function increment(Counter storage counter) internal {\n        counter._value += 1;\n    }\n\n    function decrement(Counter storage counter) internal {\n        counter._value = counter._value.sub(1);\n    }\n}\n\npragma solidity ^0.8.0;\n\n/**\n * @dev Collection of functions related to the address type,\n */\nlibrary Address {\n    /**\n     * @dev Returns true if `account` is a contract.\n     *\n     * This test is non-exhaustive, and there may be false-negatives: during the\n     * execution of a contract's constructor, its address will be reported as\n     * not containing a contract.\n     *\n     * > It is unsafe to assume that an address for which this function returns\n     * false is an externally-owned account (EOA) and not a contract.\n     */\n    function isContract(address account) internal view returns (bool) {\n        // This method relies in extcodesize, which returns 0 for contracts in\n        // construction, since the code is only stored at the end of the\n        // constructor execution.\n\n        uint256 size;\n        // solhint-disable-next-line no-inline-assembly\n        assembly { size := extcodesize(account) }\n        return size > 0;\n    }\n}\n\npragma solidity ^0.8.0;\n\n/**\n * @dev Implementation of the `IKIP13` interface.\n *\n * Contracts may inherit from this and call `_registerInterface` to declare\n * their support of an interface.\n */\ncontract KIP13 is IKIP13 {\n    /*\n     * bytes4(keccak256('supportsInterface(bytes4)')) == 0x01ffc9a7\n     */\n    bytes4 private constant _INTERFACE_ID_KIP13 = 0x01ffc9a7;\n\n    /**\n     * @dev Mapping of interface ids to whether or not it's supported.\n     */\n    mapping(bytes4 => bool) private _supportedInterfaces;\n\n    constructor () {\n        // Derived contracts need only register support for their own interfaces,\n        // we register support for KIP13 itself here\n        _registerInterface(_INTERFACE_ID_KIP13);\n    }\n\n    /**\n     * @dev See `IKIP13.supportsInterface`.\n     *\n     * Time complexity O(1), guaranteed to always use less than 30 000 gas.\n     */\n    function supportsInterface(bytes4 interfaceId) external override view returns (bool) {\n        return _supportedInterfaces[interfaceId];\n    }\n\n    /**\n     * @dev Registers the contract as an implementer of the interface defined by\n     * `interfaceId`. Support of the actual KIP13 interface is automatic and\n     * registering its interface id is not required.\n     *\n     * See `IKIP13.supportsInterface`.\n     *\n     * Requirements:\n     *\n     * - `interfaceId` cannot be the KIP13 invalid interface (`0xffffffff`).\n     */\n    function _registerInterface(bytes4 interfaceId) internal {\n        require(interfaceId != 0xffffffff, \"KIP13: invalid interface id\");\n        _supportedInterfaces[interfaceId] = true;\n    }\n}\n\npragma solidity ^0.8.0;\n\n/**\n * @title KIP-17 Non-Fungible Token Standard, optional enumeration extension\n * @dev See http://kips.klaytn.com/KIPs/kip-17-non_fungible_token\n */\nabstract contract IKIP17Enumerable is IKIP17 {\n    function totalSupply() public virtual view returns (uint256);\n    function tokenOfOwnerByIndex(address owner, uint256 index) public virtual view returns (uint256 tokenId);\n\n    function tokenByIndex(uint256 index) public virtual view returns (uint256);\n}\n\npragma solidity ^0.8.0;\n\n/**\n * @title KIP-17 Non-Fungible Token Standard, optional metadata extension\n * @dev See http://kips.klaytn.com/KIPs/kip-17-non_fungible_token\n */\nabstract contract IKIP17Metadata is IKIP17 {\n    function name() external virtual view returns (string memory);\n    function symbol() external virtual view returns (string memory);\n    function tokenURI(uint256 tokenId) external virtual view returns (string memory);\n}\n\npragma solidity ^0.8.0;\n\ncontract MinterRole {\n    using Roles for Roles.Role;\n\n    event MinterAdded(address indexed account);\n    event MinterRemoved(address indexed account);\n\n    Roles.Role private _minters;\n\n    constructor () {\n        _addMinter(msg.sender);\n    }\n\n    modifier onlyMinter() {\n        require(isMinter(msg.sender), \"MinterRole: caller does not have the Minter role\");\n        _;\n    }\n\n    function isMinter(address account) public view returns (bool) {\n        return _minters.has(account);\n    }\n\n    function addMinter(address account) public onlyMinter {\n        _addMinter(account);\n    }\n\n    function renounceMinter() public {\n        _removeMinter(msg.sender);\n    }\n\n    function _addMinter(address account) internal {\n        _minters.add(account);\n        emit MinterAdded(account);\n    }\n\n    function _removeMinter(address account) internal {\n        _minters.remove(account);\n        emit MinterRemoved(account);\n    }\n}\n\n\npragma solidity ^0.8.0;\n\ncontract KIP17 is KIP13, IKIP17, IKIP17Enumerable, IKIP17Metadata, MinterRole {\n    using SafeMath for uint256;\n    using Address for address;\n    using Counters for Counters.Counter;\n\n    // Equals to `bytes4(keccak256(\"onKIP17Received(address,address,uint256,bytes)\"))`\n    // which can be also obtained as `IKIP17Receiver(0).onKIP17Received.selector`\n    bytes4 private constant _KIP17_RECEIVED = 0x6745782b;\n\n    // Equals to `bytes4(keccak256(\"onERC721Received(address,address,uint256,bytes)\"))`\n    // which can be also obtained as `IERC721Receiver(0).onERC721Received.selector`\n    bytes4 private constant _ERC721_RECEIVED = 0x150b7a02;\n\n    // Mapping from token ID to owner\n    mapping (uint256 => address) private _tokenOwner;\n\n    // Mapping from token ID to approved address\n    mapping (uint256 => address) private _tokenApprovals;\n\n    // Mapping from owner to number of owned token\n    mapping (address => Counters.Counter) private _ownedTokensCount;\n\n    // Mapping from owner to operator approvals\n    mapping (address => mapping (address => bool)) private _operatorApprovals;\n\n    /*\n     *     bytes4(keccak256('balanceOf(address)')) == 0x70a08231\n     *     bytes4(keccak256('ownerOf(uint256)')) == 0x6352211e\n     *     bytes4(keccak256('approve(address,uint256)')) == 0x095ea7b3\n     *     bytes4(keccak256('getApproved(uint256)')) == 0x081812fc\n     *     bytes4(keccak256('setApprovalForAll(address,bool)')) == 0xa22cb465\n     *     bytes4(keccak256('isApprovedForAll(address,address)')) == 0xe985e9c\n     *     bytes4(keccak256('transferFrom(address,address,uint256)')) == 0x23b872dd\n     *     bytes4(keccak256('safeTransferFrom(address,address,uint256)')) == 0x42842e0e\n     *     bytes4(keccak256('safeTransferFrom(address,address,uint256,bytes)')) == 0xb88d4fde\n     *\n     *     => 0x70a08231 ^ 0x6352211e ^ 0x095ea7b3 ^ 0x081812fc ^\n     *        0xa22cb465 ^ 0xe985e9c ^ 0x23b872dd ^ 0x42842e0e ^ 0xb88d4fde == 0x80ac58cd\n     */\n    bytes4 private constant _INTERFACE_ID_KIP17 = 0x80ac58cd;\n\n\n    //asdasd\n    // Mapping from owner to list of owned token IDs\n    mapping(address => uint256[]) private _ownedTokens;\n\n    // Mapping from token ID to index of the owner tokens list\n    mapping(uint256 => uint256) private _ownedTokensIndex;\n\n    // Array with all token ids, used for enumeration\n    uint256[] private _allTokens;\n\n    // Mapping from token id to position in the allTokens array\n    mapping(uint256 => uint256) private _allTokensIndex;\n\n    /*\n     *     bytes4(keccak256('totalSupply()')) == 0x18160ddd\n     *     bytes4(keccak256('tokenOfOwnerByIndex(address,uint256)')) == 0x2f745c59\n     *     bytes4(keccak256('tokenByIndex(uint256)')) == 0x4f6ccce7\n     *\n     *     => 0x18160ddd ^ 0x2f745c59 ^ 0x4f6ccce7 == 0x780e9d63\n     */\n    bytes4 private constant _INTERFACE_ID_KIP17_ENUMERABLE = 0x780e9d63;\n\n\n    //asdasd\n    // Token name\n    string private _name;\n\n    // Token symbol\n    string private _symbol;\n\n    // Optional mapping for token URIs\n    mapping(uint256 => string) private _tokenURIs;\n\n    /*\n     *     bytes4(keccak256('name()')) == 0x06fdde03\n     *     bytes4(keccak256('symbol()')) == 0x95d89b41\n     *     bytes4(keccak256('tokenURI(uint256)')) == 0xc87b56dd\n     *\n     *     => 0x06fdde03 ^ 0x95d89b41 ^ 0xc87b56dd == 0x5b5e139f\n     */\n    bytes4 private constant _INTERFACE_ID_KIP17_METADATA = 0x5b5e139f;\n\n    /**\n     * @dev Constructor function\n     */\n    constructor (string memory __name, string memory __symbol) {\n        // register the supported interfaces to conform to KIP17 via KIP13\n        _registerInterface(_INTERFACE_ID_KIP17);\n        _registerInterface(_INTERFACE_ID_KIP17_ENUMERABLE);\n        \n        _name = __name;\n        _symbol = __symbol;\n\n        // register the supported interfaces to conform to KIP17 via KIP13\n        _registerInterface(_INTERFACE_ID_KIP17_METADATA);\n    }\n\n    /**\n     * @dev Gets the balance of the specified address.\n     * @param owner address to query the balance of\n     * @return uint256 representing the amount owned by the passed address\n     */\n    function balanceOf(address owner) public override view returns (uint256) {\n        require(owner != address(0), \"KIP17: balance query for the zero address\");\n\n        return _ownedTokensCount[owner].current();\n    }\n\n    /**\n     * @dev Gets the owner of the specified token ID.\n     * @param tokenId uint256 ID of the token to query the owner of\n     * @return address currently marked as the owner of the given token ID\n     */\n    function ownerOf(uint256 tokenId) public override view returns (address) {\n        address owner = _tokenOwner[tokenId];\n        require(owner != address(0), \"KIP17: owner query for nonexistent token\");\n\n        return owner;\n    }\n\n    /**\n     * @dev Approves another address to transfer the given token ID\n     * The zero address indicates there is no approved address.\n     * There can only be one approved address per token at a given time.\n     * Can only be called by the token owner or an approved operator.\n     * @param to address to be approved for the given token ID\n     * @param tokenId uint256 ID of the token to be approved\n     */\n    function approve(address to, uint256 tokenId) public override {\n        address owner = ownerOf(tokenId);\n        require(to != owner, \"KIP17: approval to current owner\");\n\n        require(msg.sender == owner || isApprovedForAll(owner, msg.sender),\n            \"KIP17: approve caller is not owner nor approved for all\"\n        );\n\n        _tokenApprovals[tokenId] = to;\n        emit Approval(owner, to, tokenId);\n    }\n\n    /**\n     * @dev Gets the approved address for a token ID, or zero if no address set\n     * Reverts if the token ID does not exist.\n     * @param tokenId uint256 ID of the token to query the approval of\n     * @return address currently approved for the given token ID\n     */\n    function getApproved(uint256 tokenId) public override view returns (address) {\n        require(_exists(tokenId), \"KIP17: approved query for nonexistent token\");\n\n        return _tokenApprovals[tokenId];\n    }\n\n    /**\n     * @dev Sets or unsets the approval of a given operator\n     * An operator is allowed to transfer all tokens of the sender on their behalf.\n     * @param to operator address to set the approval\n     * @param approved representing the status of the approval to be set\n     */\n    function setApprovalForAll(address to, bool approved) public override {\n        require(to != msg.sender, \"KIP17: approve to caller\");\n\n        _operatorApprovals[msg.sender][to] = approved;\n        emit ApprovalForAll(msg.sender, to, approved);\n    }\n\n    /**\n     * @dev Tells whether an operator is approved by a given owner.\n     * @param owner owner address which you want to query the approval of\n     * @param operator operator address which you want to query the approval of\n     * @return bool whether the given operator is approved by the given owner\n     */\n    function isApprovedForAll(address owner, address operator) public override view returns (bool) {\n        return _operatorApprovals[owner][operator];\n    }\n\n    /**\n     * @dev Transfers the ownership of a given token ID to another address.\n     * Usage of this method is discouraged, use `safeTransferFrom` whenever possible.\n     * Requires the msg.sender to be the owner, approved, or operator.\n     * @param from current owner of the token\n     * @param to address to receive the ownership of the given token ID\n     * @param tokenId uint256 ID of the token to be transferred\n     */\n    function transferFrom(address from, address to, uint256 tokenId) public override {\n        //solhint-disable-next-line max-line-length\n        require(_isApprovedOrOwner(msg.sender, tokenId), \"KIP17: transfer caller is not owner nor approved\");\n\n        _transferFrom(from, to, tokenId);\n    }\n\n    /**\n     * @dev Safely transfers the ownership of a given token ID to another address\n     * If the target address is a contract, it must implement `onKIP17Received`,\n     * which is called upon a safe transfer, and return the magic value\n     * `bytes4(keccak256(\"onKIP17Received(address,address,uint256,bytes)\"))`; otherwise,\n     * the transfer is reverted.\n     * Requires the msg.sender to be the owner, approved, or operator\n     * @param from current owner of the token\n     * @param to address to receive the ownership of the given token ID\n     * @param tokenId uint256 ID of the token to be transferred\n     */\n    function safeTransferFrom(address from, address to, uint256 tokenId) public override {\n        safeTransferFrom(from, to, tokenId, \"\");\n    }\n\n    /**\n     * @dev Safely transfers the ownership of a given token ID to another address\n     * If the target address is a contract, it must implement `onKIP17Received`,\n     * which is called upon a safe transfer, and return the magic value\n     * `bytes4(keccak256(\"onKIP17Received(address,address,uint256,bytes)\"))`; otherwise,\n     * the transfer is reverted.\n     * Requires the msg.sender to be the owner, approved, or operator\n     * @param from current owner of the token\n     * @param to address to receive the ownership of the given token ID\n     * @param tokenId uint256 ID of the token to be transferred\n     * @param _data bytes data to send along with a safe transfer check\n     */\n    function safeTransferFrom(address from, address to, uint256 tokenId, bytes memory _data) public override {\n        transferFrom(from, to, tokenId);\n        require(_checkOnKIP17Received(from, to, tokenId, _data), \"KIP17: transfer to non KIP17Receiver implementer\");\n    }\n\n    /**\n     * @dev Returns whether the specified token exists.\n     * @param tokenId uint256 ID of the token to query the existence of\n     * @return bool whether the token exists\n     */\n    function _exists(uint256 tokenId) internal view returns (bool) {\n        address owner = _tokenOwner[tokenId];\n        return owner != address(0);\n    }\n\n    /**\n     * @dev Returns whether the given spender can transfer a given token ID.\n     * @param spender address of the spender to query\n     * @param tokenId uint256 ID of the token to be transferred\n     * @return bool whether the msg.sender is approved for the given token ID,\n     * is an operator of the owner, or is the owner of the token\n     */\n    function _isApprovedOrOwner(address spender, uint256 tokenId) internal view returns (bool) {\n        require(_exists(tokenId), \"KIP17: operator query for nonexistent token\");\n        address owner = ownerOf(tokenId);\n        return (spender == owner || getApproved(tokenId) == spender || isApprovedForAll(owner, spender));\n    }\n\n    /**\n     * @dev Internal function to mint a new token.\n     * Reverts if the given token ID already exists.\n     * @param to The address that will own the minted token\n     * @param tokenId uint256 ID of the token to be minted\n     */\n    function _mint(address to, uint256 tokenId) internal {\n        require(to != address(0), \"KIP17: mint to the zero address\");\n        require(!_exists(tokenId), \"KIP17: token already minted\");\n\n        _tokenOwner[tokenId] = to;\n        _ownedTokensCount[to].increment();\n\n        _addTokenToOwnerEnumeration(to, tokenId);\n        _addTokenToAllTokensEnumeration(tokenId);\n\n        emit Transfer(address(0), to, tokenId);\n    }\n\n    /**\n     * @dev Internal function to burn a specific token.\n     * Reverts if the token does not exist.\n     * Deprecated, use _burn(uint256) instead.\n     * @param owner owner of the token to burn\n     * @param tokenId uint256 ID of the token being burned\n     */\n    function _burn(address owner, uint256 tokenId) internal {\n        require(ownerOf(tokenId) == owner, \"KIP17: burn of token that is not own\");\n\n        _clearApproval(tokenId);\n\n        _ownedTokensCount[owner].decrement();\n        _tokenOwner[tokenId] = address(0);\n\n        _removeTokenFromOwnerEnumeration(owner, tokenId);\n        // Since tokenId will be deleted, we can clear its slot in _ownedTokensIndex to trigger a gas refund\n        _ownedTokensIndex[tokenId] = 0;\n        _removeTokenFromAllTokensEnumeration(tokenId);\n\n        if (bytes(_tokenURIs[tokenId]).length != 0) {\n            delete _tokenURIs[tokenId];\n        }\n\n        emit Transfer(owner, address(0), tokenId);\n    }\n\n    /**\n     * @dev Internal function to burn a specific token.\n     * Reverts if the token does not exist.\n     * @param tokenId uint256 ID of the token being burned\n     */\n    function _burn(uint256 tokenId) internal {\n        _burn(ownerOf(tokenId), tokenId);\n    }\n\n    /**\n     * @dev Internal function to transfer ownership of a given token ID to another address.\n     * As opposed to transferFrom, this imposes no restrictions on msg.sender.\n     * @param from current owner of the token\n     * @param to address to receive the ownership of the given token ID\n     * @param tokenId uint256 ID of the token to be transferred\n     */\n    function _transferFrom(address from, address to, uint256 tokenId) internal {\n        require(ownerOf(tokenId) == from, \"KIP17: transfer of token that is not own\");\n        require(to != address(0), \"KIP17: transfer to the zero address\");\n\n        _clearApproval(tokenId);\n\n        _ownedTokensCount[from].decrement();\n        _ownedTokensCount[to].increment();\n\n        _tokenOwner[tokenId] = to;\n\n        _removeTokenFromOwnerEnumeration(from, tokenId);\n        _addTokenToOwnerEnumeration(to, tokenId);\n\n        emit Transfer(from, to, tokenId);\n    }\n\n    /**\n     * @dev Internal function to invoke `onKIP17Received` on a target address.\n     * The call is not executed if the target address is not a contract.\n     *\n     * This function is deprecated.\n     * @param from address representing the previous owner of the given token ID\n     * @param to target address that will receive the tokens\n     * @param tokenId uint256 ID of the token to be transferred\n     * @param _data bytes optional data to send along with the call\n     * @return bool whether the call correctly returned the expected magic value\n     */\n    function _checkOnKIP17Received(address from, address to, uint256 tokenId, bytes memory _data)\n        internal returns (bool)\n    {\n        bool success; \n        bytes memory returndata;\n\n        if (!to.isContract()) {\n            return true;\n        }\n\n        // Logic for compatibility with ERC721.\n        (success, returndata) = to.call(\n            abi.encodeWithSelector(_ERC721_RECEIVED, msg.sender, from, tokenId, _data)\n        );\n        if (returndata.length != 0 && abi.decode(returndata, (bytes4)) == _ERC721_RECEIVED) {\n            return true;\n        }\n\n        (success, returndata) = to.call(\n            abi.encodeWithSelector(_KIP17_RECEIVED, msg.sender, from, tokenId, _data)\n        );\n        if (returndata.length != 0 && abi.decode(returndata, (bytes4)) == _KIP17_RECEIVED) {\n            return true;\n        }\n\n        return false;\n    }\n\n    /**\n     * @dev Private function to clear current approval of a given token ID.\n     * @param tokenId uint256 ID of the token to be transferred\n     */\n    function _clearApproval(uint256 tokenId) private {\n        if (_tokenApprovals[tokenId] != address(0)) {\n            _tokenApprovals[tokenId] = address(0);\n        }\n    }\n\n    /**\n     * @dev Gets the token ID at a given index of the tokens list of the requested owner.\n     * @param owner address owning the tokens list to be accessed\n     * @param index uint256 representing the index to be accessed of the requested tokens list\n     * @return uint256 token ID at the given index of the tokens list owned by the requested address\n     */\n    function tokenOfOwnerByIndex(address owner, uint256 index) public override view returns (uint256) {\n        require(index < balanceOf(owner), \"KIP17Enumerable: owner index out of bounds\");\n        return _ownedTokens[owner][index];\n    }\n\n    /**\n     * @dev Gets the total amount of tokens stored by the contract.\n     * @return uint256 representing the total amount of tokens\n     */\n    function totalSupply() public override view returns (uint256) {\n        return _allTokens.length;\n    }\n\n    /**\n     * @dev Gets the token ID at a given index of all the tokens in this contract\n     * Reverts if the index is greater or equal to the total number of tokens.\n     * @param index uint256 representing the index to be accessed of the tokens list\n     * @return uint256 token ID at the given index of the tokens list\n     */\n    function tokenByIndex(uint256 index) public override view returns (uint256) {\n        require(index < totalSupply(), \"KIP17Enumerable: global index out of bounds\");\n        return _allTokens[index];\n    }\n\n    /**\n     * @dev Gets the list of token IDs of the requested owner.\n     * @param owner address owning the tokens\n     * @return uint256[] List of token IDs owned by the requested address\n     */\n    function _tokensOfOwner(address owner) internal view returns (uint256[] storage) {\n        return _ownedTokens[owner];\n    }\n\n    /**\n     * @dev Private function to add a token to this extension's ownership-tracking data structures.\n     * @param to address representing the new owner of the given token ID\n     * @param tokenId uint256 ID of the token to be added to the tokens list of the given address\n     */\n    function _addTokenToOwnerEnumeration(address to, uint256 tokenId) private {\n        _ownedTokensIndex[tokenId] = _ownedTokens[to].length;\n        _ownedTokens[to].push(tokenId);\n    }\n\n    /**\n     * @dev Private function to add a token to this extension's token tracking data structures.\n     * @param tokenId uint256 ID of the token to be added to the tokens list\n     */\n    function _addTokenToAllTokensEnumeration(uint256 tokenId) private {\n        _allTokensIndex[tokenId] = _allTokens.length;\n        _allTokens.push(tokenId);\n    }\n\n    /**\n     * @dev Private function to remove a token from this extension's ownership-tracking data structures. Note that\n     * while the token is not assigned a new owner, the _ownedTokensIndex mapping is _not_ updated: this allows for\n     * gas optimizations e.g. when performing a transfer operation (avoiding double writes).\n     * This has O(1) time complexity, but alters the order of the _ownedTokens array.\n     * @param from address representing the previous owner of the given token ID\n     * @param tokenId uint256 ID of the token to be removed from the tokens list of the given address\n     */\n    function _removeTokenFromOwnerEnumeration(address from, uint256 tokenId) private {\n        // To prevent a gap in from's tokens array, we store the last token in the index of the token to delete, and\n        // then delete the last slot (swap and pop).\n\n        uint256 lastTokenIndex = _ownedTokens[from].length.sub(1);\n        uint256 tokenIndex = _ownedTokensIndex[tokenId];\n\n        // When the token to delete is the last token, the swap operation is unnecessary\n        if (tokenIndex != lastTokenIndex) {\n            uint256 lastTokenId = _ownedTokens[from][lastTokenIndex];\n\n            _ownedTokens[from][tokenIndex] = lastTokenId; // Move the last token to the slot of the to-delete token\n            _ownedTokensIndex[lastTokenId] = tokenIndex; // Update the moved token's index\n        }\n\n        // This also deletes the contents at the last position of the array\n        _ownedTokens[from].pop();\n\n        // Note that _ownedTokensIndex[tokenId] hasn't been cleared: it still points to the old slot (now occupied by\n        // lastTokenId, or just over the end of the array if the token was the last one).\n    }\n\n    /**\n     * @dev Private function to remove a token from this extension's token tracking data structures.\n     * This has O(1) time complexity, but alters the order of the _allTokens array.\n     * @param tokenId uint256 ID of the token to be removed from the tokens list\n     */\n    function _removeTokenFromAllTokensEnumeration(uint256 tokenId) private {\n        // To prevent a gap in the tokens array, we store the last token in the index of the token to delete, and\n        // then delete the last slot (swap and pop).\n\n        uint256 lastTokenIndex = _allTokens.length.sub(1);\n        uint256 tokenIndex = _allTokensIndex[tokenId];\n\n        // When the token to delete is the last token, the swap operation is unnecessary. However, since this occurs so\n        // rarely (when the last minted token is burnt) that we still do the swap here to avoid the gas cost of adding\n        // an 'if' statement (like in _removeTokenFromOwnerEnumeration)\n        uint256 lastTokenId = _allTokens[lastTokenIndex];\n\n        _allTokens[tokenIndex] = lastTokenId; // Move the last token to the slot of the to-delete token\n        _allTokensIndex[lastTokenId] = tokenIndex; // Update the moved token's index\n\n        // This also deletes the contents at the last position of the array\n        _allTokens.pop();\n        _allTokensIndex[tokenId] = 0;\n    }\n\n    /**\n     * @dev Gets the token name.\n     * @return string representing the token name\n     */\n    function name() external override view returns (string memory) {\n        return _name;\n    }\n\n    /**\n     * @dev Gets the token symbol.\n     * @return string representing the token symbol\n     */\n    function symbol() external override view returns (string memory) {\n        return _symbol;\n    }\n\n    /**\n     * @dev Returns an URI for a given token ID.\n     * Throws if the token ID does not exist. May return an empty string.\n     * @param tokenId uint256 ID of the token to query\n     */\n    function tokenURI(uint256 tokenId) external override view returns (string memory) {\n        require(_exists(tokenId), \"KIP17Metadata: URI query for nonexistent token\");\n        return _tokenURIs[tokenId];\n    }\n\n    /**\n     * @dev Internal function to set the token URI for a given token.\n     * Reverts if the token ID does not exist.\n     * @param tokenId uint256 ID of the token to set its URI\n     * @param uri string URI to assign\n     */\n    function _setTokenURI(uint256 tokenId, string memory uri) internal {\n        require(_exists(tokenId), \"KIP17Metadata: URI set of nonexistent token\");\n        _tokenURIs[tokenId] = uri;\n    }\n}\n\n\npragma solidity ^0.8.0;\n\ncontract PauserRole {\n    using Roles for Roles.Role;\n\n    event PauserAdded(address indexed account);\n    event PauserRemoved(address indexed account);\n\n    Roles.Role private _pausers;\n\n    constructor () {\n        _addPauser(msg.sender);\n    }\n\n    modifier onlyPauser() {\n        require(isPauser(msg.sender), \"PauserRole: caller does not have the Pauser role\");\n        _;\n    }\n\n    function isPauser(address account) public view returns (bool) {\n        return _pausers.has(account);\n    }\n\n    function addPauser(address account) public onlyPauser {\n        _addPauser(account);\n    }\n\n    function renouncePauser() public {\n        _removePauser(msg.sender);\n    }\n\n    function _addPauser(address account) internal {\n        _pausers.add(account);\n        emit PauserAdded(account);\n    }\n\n    function _removePauser(address account) internal {\n        _pausers.remove(account);\n        emit PauserRemoved(account);\n    }\n}\n\npragma solidity ^0.8.0;\n\n/**\n * @dev Contract module which allows children to implement an emergency stop\n * mechanism that can be triggered by an authorized account.\n *\n * This module is used through inheritance. It will make available the\n * modifiers `whenNotPaused` and `whenPaused`, which can be applied to\n * the functions of your contract. Note that they will not be pausable by\n * simply including this module, only once the modifiers are put in place.\n */\ncontract Pausable is PauserRole {\n    /**\n     * @dev Emitted when the pause is triggered by a pauser (`account`).\n     */\n    event Paused(address account);\n\n    /**\n     * @dev Emitted when the pause is lifted by a pauser (`account`).\n     */\n    event Unpaused(address account);\n\n    bool private _paused;\n\n    /**\n     * @dev Initializes the contract in unpaused state. Assigns the Pauser role\n     * to the deployer.\n     */\n    constructor () {\n        _paused = false;\n    }\n\n    /**\n     * @dev Returns true if the contract is paused, and false otherwise.\n     */\n    function paused() public view returns (bool) {\n        return _paused;\n    }\n\n    /**\n     * @dev Modifier to make a function callable only when the contract is not paused.\n     */\n    modifier whenNotPaused() {\n        require(!_paused, \"Pausable: paused\");\n        _;\n    }\n\n    /**\n     * @dev Modifier to make a function callable only when the contract is paused.\n     */\n    modifier whenPaused() {\n        require(_paused, \"Pausable: not paused\");\n        _;\n    }\n\n    /**\n     * @dev Called by a pauser to pause, triggers stopped state.\n     */\n    function pause() public onlyPauser whenNotPaused {\n        _paused = true;\n        emit Paused(msg.sender);\n    }\n\n    /**\n     * @dev Called by a pauser to unpause, returns to normal state.\n     */\n    function unpause() public onlyPauser whenPaused {\n        _paused = false;\n        emit Unpaused(msg.sender);\n    }\n}\n\n\npragma solidity ^0.8.0;\n\n/**\n * @title Full KIP-17 Token\n * This implementation includes all the required and some optional functionality of the KIP-17 standard\n * Moreover, it includes approve all functionality using operator terminology\n * @dev see http://kips.klaytn.com/KIPs/kip-17-non_fungible_token\n */\ncontract KIP17Full is KIP13, KIP17, Pausable {\n    /*\n     *     bytes4(keccak256('isMinter(address)')) == 0xaa271e1a\n     *     bytes4(keccak256('addMinter(address)')) == 0x983b2d56\n     *     bytes4(keccak256('renounceMinter()')) == 0x98650275\n     *     bytes4(keccak256('mint(address,uint256)')) == 0x40c10f19\n     *\n     *     => 0xaa271e1a ^ 0x983b2d56 ^ 0x98650275 ^ 0x40c10f19 == 0xeab83e20\n     */\n    bytes4 private constant _INTERFACE_ID_KIP17_MINTABLE = 0xeab83e20;\n\n    //asd\n    /*\n     *     bytes4(keccak256('mintWithTokenURI(address,uint256,string)')) == 0x50bb4e7f\n     *     bytes4(keccak256('isMinter(address)')) == 0xaa271e1a\n     *     bytes4(keccak256('addMinter(address)')) == 0x983b2d56\n     *     bytes4(keccak256('renounceMinter()')) == 0x98650275\n     *\n     *     => 0x50bb4e7f ^ 0xaa271e1a ^ 0x983b2d56 ^ 0x98650275 == 0xfac27f46\n     */\n    bytes4 private constant _INTERFACE_ID_KIP17_METADATA_MINTABLE = 0xfac27f46;\n\n    /*\n     *     bytes4(keccak256('burn(uint256)')) == 0x42966c68\n     *\n     *     => 0x42966c68 == 0x42966c68\n     */\n    bytes4 private constant _INTERFACE_ID_KIP17_BURNABLE = 0x42966c68;\n\n    /*\n     *     bytes4(keccak256('paused()')) == 0x5c975abb\n     *     bytes4(keccak256('pause()')) == 0x8456cb59\n     *     bytes4(keccak256('unpause()')) == 0x3f4ba83a\n     *     bytes4(keccak256('isPauser(address)')) == 0x46fbf68e\n     *     bytes4(keccak256('addPauser(address)')) == 0x82dc1ec4\n     *     bytes4(keccak256('renouncePauser()')) == 0x6ef8d66d\n     *\n     *     => 0x5c975abb ^ 0x8456cb59 ^ 0x3f4ba83a ^ 0x46fbf68e ^ 0x82dc1ec4 ^ 0x6ef8d66d == 0x4d5507ff\n     */\n    bytes4 private constant _INTERFACE_ID_KIP17_PAUSABLE = 0x4d5507ff;\n\n    /**\n     * @dev Constructor function.\n     */\n    constructor (string memory name, string memory symbol) KIP17(name, symbol) {\n        // register the supported interface to conform to KIP17Mintable via KIP13\n        _registerInterface(_INTERFACE_ID_KIP17_MINTABLE);\n        _registerInterface(_INTERFACE_ID_KIP17_METADATA_MINTABLE);\n        _registerInterface(_INTERFACE_ID_KIP17_BURNABLE);\n        _registerInterface(_INTERFACE_ID_KIP17_PAUSABLE);\n        // solhint-disable-previous-line no-empty-blocks\n    }\n\n    /**\n     * @dev Function to mint tokens.\n     * @param to The address that will receive the minted tokens.\n     * @param tokenId The token id to mint.\n     * @return A boolean that indicates if the operation was successful.\n     */\n    function mint(address to, uint256 tokenId) public onlyMinter returns (bool) {\n        _mint(to, tokenId);\n        return true;\n    }\n\n    /**\n     * @dev Function to mint tokens.\n     * @param to The address that will receive the minted tokens.\n     * @param tokenId The token id to mint.\n     * @param tokenURI The token URI of the minted token.\n     * @return A boolean that indicates if the operation was successful.\n     */\n    function mintWithTokenURI(address to, uint256 tokenId, string memory tokenURI) public onlyMinter returns (bool) {\n        _mint(to, tokenId);\n        _setTokenURI(tokenId, tokenURI);\n        return true;\n    }\n    \n    function mintWithTokenURIForSell(address to, uint256 tokenId, string memory tokenURI) internal returns (bool) {\n        _mint(to, tokenId);\n        _setTokenURI(tokenId, tokenURI);\n        return true;\n    }\n\n    /**\n     * @dev Burns a specific KIP17 token.\n     * @param tokenId uint256 id of the KIP17 token to be burned.\n     */\n    function burn(uint256 tokenId) public {\n        //solhint-disable-next-line max-line-length\n        require(_isApprovedOrOwner(msg.sender, tokenId), \"KIP17Burnable: caller is not owner nor approved\");\n        _burn(tokenId);\n    }\n}\n\n\npragma solidity ^0.8.0;\n\n/**\n * @title Roles\n * @dev Library for managing addresses assigned to a Role.\n */\nlibrary Roles {\n    struct Role {\n        mapping (address => bool) bearer;\n    }\n\n    /**\n     * @dev Give an account access to this role.\n     */\n    function add(Role storage role, address account) internal {\n        require(!has(role, account), \"Roles: account already has role\");\n        role.bearer[account] = true;\n    }\n\n    /**\n     * @dev Remove an account's access to this role.\n     */\n    function remove(Role storage role, address account) internal {\n        require(has(role, account), \"Roles: account does not have role\");\n        role.bearer[account] = false;\n    }\n\n    /**\n     * @dev Check if an account has this role.\n     * @return bool\n     */\n    function has(Role storage role, address account) internal view returns (bool) {\n        require(account != address(0), \"Roles: account is the zero address\");\n        return role.bearer[account];\n    }\n}\n\npragma solidity ^0.8.0;\n\ncontract KIP17Token is KIP17Full, Ownable {\n    constructor (string memory name, string memory symbol) KIP17Full(name, symbol) {\n    }\n}",
  "sourcePath": "/root/Proj/staking/contract/contracts/NFT.sol",
  "compiler": {
    "name": "solc",
    "version": "0.8.0+commit.c7dfd78e.Emscripten.clang"
  },
  "schemaVersion": "3.1.0",
  "updatedAt": "2022-04-18T00:15:31.569Z",
  "devdoc": {
    "kind": "dev",
    "methods": {
      "approve(address,uint256)": {
        "details": "Approves another address to transfer the given token ID The zero address indicates there is no approved address. There can only be one approved address per token at a given time. Can only be called by the token owner or an approved operator.",
        "params": {
          "to": "address to be approved for the given token ID",
          "tokenId": "uint256 ID of the token to be approved"
        }
      },
      "balanceOf(address)": {
        "details": "Gets the balance of the specified address.",
        "params": {
          "owner": "address to query the balance of"
        },
        "returns": {
          "_0": "uint256 representing the amount owned by the passed address"
        }
      },
      "constructor": {
        "details": "Constructor function"
      },
      "getApproved(uint256)": {
        "details": "Gets the approved address for a token ID, or zero if no address set Reverts if the token ID does not exist.",
        "params": {
          "tokenId": "uint256 ID of the token to query the approval of"
        },
        "returns": {
          "_0": "address currently approved for the given token ID"
        }
      },
      "isApprovedForAll(address,address)": {
        "details": "Tells whether an operator is approved by a given owner.",
        "params": {
          "operator": "operator address which you want to query the approval of",
          "owner": "owner address which you want to query the approval of"
        },
        "returns": {
          "_0": "bool whether the given operator is approved by the given owner"
        }
      },
      "name()": {
        "details": "Gets the token name.",
        "returns": {
          "_0": "string representing the token name"
        }
      },
      "ownerOf(uint256)": {
        "details": "Gets the owner of the specified token ID.",
        "params": {
          "tokenId": "uint256 ID of the token to query the owner of"
        },
        "returns": {
          "_0": "address currently marked as the owner of the given token ID"
        }
      },
      "safeTransferFrom(address,address,uint256)": {
        "details": "Safely transfers the ownership of a given token ID to another address If the target address is a contract, it must implement `onKIP17Received`, which is called upon a safe transfer, and return the magic value `bytes4(keccak256(\"onKIP17Received(address,address,uint256,bytes)\"))`; otherwise, the transfer is reverted. Requires the msg.sender to be the owner, approved, or operator",
        "params": {
          "from": "current owner of the token",
          "to": "address to receive the ownership of the given token ID",
          "tokenId": "uint256 ID of the token to be transferred"
        }
      },
      "safeTransferFrom(address,address,uint256,bytes)": {
        "details": "Safely transfers the ownership of a given token ID to another address If the target address is a contract, it must implement `onKIP17Received`, which is called upon a safe transfer, and return the magic value `bytes4(keccak256(\"onKIP17Received(address,address,uint256,bytes)\"))`; otherwise, the transfer is reverted. Requires the msg.sender to be the owner, approved, or operator",
        "params": {
          "_data": "bytes data to send along with a safe transfer check",
          "from": "current owner of the token",
          "to": "address to receive the ownership of the given token ID",
          "tokenId": "uint256 ID of the token to be transferred"
        }
      },
      "setApprovalForAll(address,bool)": {
        "details": "Sets or unsets the approval of a given operator An operator is allowed to transfer all tokens of the sender on their behalf.",
        "params": {
          "approved": "representing the status of the approval to be set",
          "to": "operator address to set the approval"
        }
      },
      "supportsInterface(bytes4)": {
        "details": "See `IKIP13.supportsInterface`. Time complexity O(1), guaranteed to always use less than 30 000 gas."
      },
      "symbol()": {
        "details": "Gets the token symbol.",
        "returns": {
          "_0": "string representing the token symbol"
        }
      },
      "tokenByIndex(uint256)": {
        "details": "Gets the token ID at a given index of all the tokens in this contract Reverts if the index is greater or equal to the total number of tokens.",
        "params": {
          "index": "uint256 representing the index to be accessed of the tokens list"
        },
        "returns": {
          "_0": "uint256 token ID at the given index of the tokens list"
        }
      },
      "tokenOfOwnerByIndex(address,uint256)": {
        "details": "Gets the token ID at a given index of the tokens list of the requested owner.",
        "params": {
          "index": "uint256 representing the index to be accessed of the requested tokens list",
          "owner": "address owning the tokens list to be accessed"
        },
        "returns": {
          "_0": "uint256 token ID at the given index of the tokens list owned by the requested address"
        }
      },
      "tokenURI(uint256)": {
        "details": "Returns an URI for a given token ID. Throws if the token ID does not exist. May return an empty string.",
        "params": {
          "tokenId": "uint256 ID of the token to query"
        }
      },
      "totalSupply()": {
        "details": "Gets the total amount of tokens stored by the contract.",
        "returns": {
          "_0": "uint256 representing the total amount of tokens"
        }
      },
      "transferFrom(address,address,uint256)": {
        "details": "Transfers the ownership of a given token ID to another address. Usage of this method is discouraged, use `safeTransferFrom` whenever possible. Requires the msg.sender to be the owner, approved, or operator.",
        "params": {
          "from": "current owner of the token",
          "to": "address to receive the ownership of the given token ID",
          "tokenId": "uint256 ID of the token to be transferred"
        }
      }
    },
    "version": 1
  },
  "userdoc": {
    "kind": "user",
    "methods": {},
    "version": 1
  }
}