{
  "contractName": "staking",
  "abi": [
    {
      "inputs": [
        {
          "internalType": "address",
          "name": "kip17",
          "type": "address"
        }
      ],
      "stateMutability": "nonpayable",
      "type": "constructor"
    },
    {
      "anonymous": false,
      "inputs": [
        {
          "indexed": true,
          "internalType": "address",
          "name": "previousOwner",
          "type": "address"
        },
        {
          "indexed": true,
          "internalType": "address",
          "name": "newOwner",
          "type": "address"
        }
      ],
      "name": "OwnershipTransferred",
      "type": "event"
    },
    {
      "anonymous": false,
      "inputs": [
        {
          "indexed": true,
          "internalType": "address",
          "name": "user",
          "type": "address"
        },
        {
          "indexed": false,
          "internalType": "uint256",
          "name": "tokenId",
          "type": "uint256"
        }
      ],
      "name": "Staked",
      "type": "event"
    },
    {
      "anonymous": false,
      "inputs": [
        {
          "indexed": true,
          "internalType": "address",
          "name": "user",
          "type": "address"
        },
        {
          "indexed": false,
          "internalType": "uint256",
          "name": "tokenId",
          "type": "uint256"
        }
      ],
      "name": "Withdrawn",
      "type": "event"
    },
    {
      "inputs": [
        {
          "internalType": "address",
          "name": "",
          "type": "address"
        }
      ],
      "name": "balances",
      "outputs": [
        {
          "internalType": "uint256",
          "name": "",
          "type": "uint256"
        }
      ],
      "stateMutability": "view",
      "type": "function",
      "constant": true
    },
    {
      "inputs": [],
      "name": "isOwner",
      "outputs": [
        {
          "internalType": "bool",
          "name": "",
          "type": "bool"
        }
      ],
      "stateMutability": "view",
      "type": "function",
      "constant": true
    },
    {
      "inputs": [],
      "name": "owner",
      "outputs": [
        {
          "internalType": "address",
          "name": "",
          "type": "address"
        }
      ],
      "stateMutability": "view",
      "type": "function",
      "constant": true
    },
    {
      "inputs": [],
      "name": "renounceOwnership",
      "outputs": [],
      "stateMutability": "nonpayable",
      "type": "function"
    },
    {
      "inputs": [
        {
          "internalType": "uint256",
          "name": "",
          "type": "uint256"
        }
      ],
      "name": "stakedAssets",
      "outputs": [
        {
          "internalType": "address",
          "name": "",
          "type": "address"
        }
      ],
      "stateMutability": "view",
      "type": "function",
      "constant": true
    },
    {
      "inputs": [],
      "name": "totalSupply",
      "outputs": [
        {
          "internalType": "uint256",
          "name": "",
          "type": "uint256"
        }
      ],
      "stateMutability": "view",
      "type": "function",
      "constant": true
    },
    {
      "inputs": [
        {
          "internalType": "address payable",
          "name": "newOwner",
          "type": "address"
        }
      ],
      "name": "transferOwnership",
      "outputs": [],
      "stateMutability": "nonpayable",
      "type": "function"
    },
    {
      "inputs": [],
      "name": "name",
      "outputs": [
        {
          "internalType": "string",
          "name": "",
          "type": "string"
        }
      ],
      "stateMutability": "view",
      "type": "function",
      "constant": true
    },
    {
      "inputs": [
        {
          "internalType": "address",
          "name": "user",
          "type": "address"
        }
      ],
      "name": "getInformation",
      "outputs": [
        {
          "internalType": "uint256",
          "name": "",
          "type": "uint256"
        },
        {
          "internalType": "uint256[]",
          "name": "",
          "type": "uint256[]"
        }
      ],
      "stateMutability": "view",
      "type": "function",
      "constant": true
    },
    {
      "inputs": [
        {
          "internalType": "uint256",
          "name": "tokenId",
          "type": "uint256"
        }
      ],
      "name": "stake",
      "outputs": [],
      "stateMutability": "nonpayable",
      "type": "function"
    },
    {
      "inputs": [
        {
          "internalType": "uint256",
          "name": "tokenId",
          "type": "uint256"
        }
      ],
      "name": "withdraw",
      "outputs": [],
      "stateMutability": "nonpayable",
      "type": "function"
    }
  ],
  "bytecode": "0x608060405234801561001057600080fd5b50604051610f75380380610f7583398101604081905261002f9161009d565b600080546001600160a01b03191633178082556040516001600160a01b039190911691907f8be0079c531659141344cd1fd0a4f28419497f9722a3daafe3b4186f6b6457e0908290a3600180546001600160a01b0319166001600160a01b03929092169190911790556100cb565b6000602082840312156100ae578081fd5b81516001600160a01b03811681146100c4578182fd5b9392505050565b610e9b806100da6000396000f3fe608060405234801561001057600080fd5b50600436106100c95760003560e01c80637d8fc88e11610081578063a694fc3a1161005b578063a694fc3a1461016e578063b33d600a14610181578063f2fde38b146101a2576100c9565b80637d8fc88e146101315780638da5cb5b146101515780638f32d59b14610159576100c9565b806327e235e3116100b257806327e235e3146101015780632e1a7d4d14610114578063715018a614610129576100c9565b806306fdde03146100ce57806318160ddd146100ec575b600080fd5b6100d66101b5565b6040516100e39190610bb7565b60405180910390f35b6100f461027f565b6040516100e39190610cf7565b6100f461010f366004610a20565b610285565b610127610122366004610b04565b610297565b005b610127610416565b61014461013f366004610b04565b6104c3565b6040516100e39190610b34565b6101446104eb565b610161610507565b6040516100e39190610bac565b61012761017c366004610b04565b610525565b61019461018f366004610a20565b610635565b6040516100e3929190610d00565b6101276101b0366004610a20565b610885565b600154604080517f06fdde03000000000000000000000000000000000000000000000000000000008152905160609273ffffffffffffffffffffffffffffffffffffffff16916306fdde03916004808301926000929190829003018186803b15801561022057600080fd5b505afa158015610234573d6000803e3d6000fd5b505050506040513d6000823e601f3d9081017fffffffffffffffffffffffffffffffffffffffffffffffffffffffffffffffe016820160405261027a9190810190610a43565b905090565b60025481565b60046020526000908152604090205481565b60008181526003602052604090205473ffffffffffffffffffffffffffffffffffffffff1633146102fd576040517f08c379a00000000000000000000000000000000000000000000000000000000081526004016102f490610c08565b60405180910390fd5b6001546040517f23b872dd00000000000000000000000000000000000000000000000000000000815273ffffffffffffffffffffffffffffffffffffffff909116906323b872dd9061035790309033908690600401610b55565b600060405180830381600087803b15801561037157600080fd5b505af1158015610385573d6000803e3d6000fd5b505050600082815260036020526040902080547fffffffffffffffffffffffff0000000000000000000000000000000000000000169055506103c56108cf565b3373ffffffffffffffffffffffffffffffffffffffff167f7084f5476618d8e60b11ef0d7d3f06914655adb8793e28ff7f018d4c76d505d58260405161040b9190610cf7565b60405180910390a250565b61041e610507565b610454576040517f08c379a00000000000000000000000000000000000000000000000000000000081526004016102f490610cc2565b6000805460405173ffffffffffffffffffffffffffffffffffffffff909116907f8be0079c531659141344cd1fd0a4f28419497f9722a3daafe3b4186f6b6457e0908390a3600080547fffffffffffffffffffffffff0000000000000000000000000000000000000000169055565b60036020526000908152604090205473ffffffffffffffffffffffffffffffffffffffff1681565b60005473ffffffffffffffffffffffffffffffffffffffff1690565b60005473ffffffffffffffffffffffffffffffffffffffff16331490565b6001546040517f23b872dd00000000000000000000000000000000000000000000000000000000815273ffffffffffffffffffffffffffffffffffffffff909116906323b872dd9061057f90339030908690600401610b55565b600060405180830381600087803b15801561059957600080fd5b505af11580156105ad573d6000803e3d6000fd5b505050600082815260036020526040902080547fffffffffffffffffffffffff00000000000000000000000000000000000000001633179055506105ef61090e565b3373ffffffffffffffffffffffffffffffffffffffff167f9e71bc8eea02a63969f509818f2dafb9254532904319f9dbda79b67bd34a5f3d8260405161040b9190610cf7565b6001546040517f70a08231000000000000000000000000000000000000000000000000000000008152600091606091839173ffffffffffffffffffffffffffffffffffffffff16906370a0823190610691908790600401610b34565b60206040518083038186803b1580156106a957600080fd5b505afa1580156106bd573d6000803e3d6000fd5b505050506040513d601f19601f820116820180604052508101906106e19190610b1c565b67ffffffffffffffff811115610720577f4e487b7100000000000000000000000000000000000000000000000000000000600052604160045260246000fd5b604051908082528060200260200182016040528015610749578160200160208202803683370190505b50905060005b8151811015610856576001546040517f2f745c5900000000000000000000000000000000000000000000000000000000815273ffffffffffffffffffffffffffffffffffffffff90911690632f745c59906107b09088908590600401610b86565b60206040518083038186803b1580156107c857600080fd5b505afa1580156107dc573d6000803e3d6000fd5b505050506040513d601f19601f820116820180604052508101906108009190610b1c565b828281518110610839577f4e487b7100000000000000000000000000000000000000000000000000000000600052603260045260246000fd5b60209081029190910101528061084e81610dac565b91505061074f565b5073ffffffffffffffffffffffffffffffffffffffff9390931660009081526004602052604090205493915050565b61088d610507565b6108c3576040517f08c379a00000000000000000000000000000000000000000000000000000000081526004016102f490610cc2565b6108cc81610946565b50565b6001600260008282546108e29190610d65565b9091555050336000908152600460205260408120805460019290610907908490610d65565b9091555050565b6001600260008282546109219190610d4d565b9091555050336000908152600460205260408120805460019290610907908490610d4d565b73ffffffffffffffffffffffffffffffffffffffff8116610993576040517f08c379a00000000000000000000000000000000000000000000000000000000081526004016102f490610c65565b6000805460405173ffffffffffffffffffffffffffffffffffffffff808516939216917f8be0079c531659141344cd1fd0a4f28419497f9722a3daafe3b4186f6b6457e091a3600080547fffffffffffffffffffffffff00000000000000000000000000000000000000001673ffffffffffffffffffffffffffffffffffffffff92909216919091179055565b600060208284031215610a31578081fd5b8135610a3c81610e43565b9392505050565b600060208284031215610a54578081fd5b815167ffffffffffffffff80821115610a6b578283fd5b818401915084601f830112610a7e578283fd5b815181811115610a9057610a90610e14565b60405160207fffffffffffffffffffffffffffffffffffffffffffffffffffffffffffffffe0601f8401168201018181108482111715610ad257610ad2610e14565b604052818152838201602001871015610ae9578485fd5b610afa826020830160208701610d7c565b9695505050505050565b600060208284031215610b15578081fd5b5035919050565b600060208284031215610b2d578081fd5b5051919050565b73ffffffffffffffffffffffffffffffffffffffff91909116815260200190565b73ffffffffffffffffffffffffffffffffffffffff9384168152919092166020820152604081019190915260600190565b73ffffffffffffffffffffffffffffffffffffffff929092168252602082015260400190565b901515815260200190565b6000602082528251806020840152610bd6816040850160208701610d7c565b601f017fffffffffffffffffffffffffffffffffffffffffffffffffffffffffffffffe0169190910160400192915050565b60208082526024908201527f5374616b696e673a204e6f7420746865207374616b6572206f6620746865207460408201527f6f6b656e00000000000000000000000000000000000000000000000000000000606082015260800190565b60208082526026908201527f4f776e61626c653a206e6577206f776e657220697320746865207a65726f206160408201527f6464726573730000000000000000000000000000000000000000000000000000606082015260800190565b6020808252818101527f4f776e61626c653a2063616c6c6572206973206e6f7420746865206f776e6572604082015260600190565b90815260200190565b60006040820184835260206040818501528185518084526060860191508287019350845b81811015610d4057845183529383019391830191600101610d24565b5090979650505050505050565b60008219821115610d6057610d60610de5565b500190565b600082821015610d7757610d77610de5565b500390565b60005b83811015610d97578181015183820152602001610d7f565b83811115610da6576000848401525b50505050565b60007fffffffffffffffffffffffffffffffffffffffffffffffffffffffffffffffff821415610dde57610dde610de5565b5060010190565b7f4e487b7100000000000000000000000000000000000000000000000000000000600052601160045260246000fd5b7f4e487b7100000000000000000000000000000000000000000000000000000000600052604160045260246000fd5b73ffffffffffffffffffffffffffffffffffffffff811681146108cc57600080fdfea264697066735822122037f31afebac5b7546db3b639894829d28d706744013be2ffd5591e3b3b5c746364736f6c63430008000033",
  "immutableReferences": {},
  "source": "// SPDX-License-Identifier: MIT\npragma solidity ^0.8.0;\n\nimport './NFT.sol';\n\ncontract staking is Ownable {\n    using SafeMath for uint256;\n    using Address for address;\n\n    KIP17Token private _kip17;\n\n    uint256 public totalSupply;\n\n    mapping(uint256 => address) public stakedAssets;\n    mapping(address => uint256) public balances;\n\n    constructor (address kip17) {\n        _kip17 = KIP17Token(kip17);\n    }\n    function name() external view returns(string memory) {\n        return _kip17.name();\n    }\n\n    function getInformation(address user) public view returns(uint256, uint256[] memory) {\n        uint256[] memory tokenIds = new uint256[](_kip17.balanceOf(user));\n\n        for (uint256 i = 0; i < tokenIds.length; i++) {\n            tokenIds[i] = _kip17.tokenOfOwnerByIndex(user, i);\n        }\n\n        return (balances[user], tokenIds);\n    }\n\n    function stake(uint256 tokenId) external {\n        _kip17.transferFrom(msg.sender, address(this), tokenId);\n        stakedAssets[tokenId] = msg.sender;\n\n        _stake();\n        emit Staked(msg.sender, tokenId);\n    }\n\n    function withdraw(uint256 tokenId) public {\n        require(stakedAssets[tokenId] == msg.sender, \"Staking: Not the staker of the token\");\n\n        _kip17.transferFrom(address(this), msg.sender, tokenId);\n        stakedAssets[tokenId] = address(0);\n\n        _withdraw();\n        emit Withdrawn(msg.sender, tokenId);\n    }\n\n    function _stake() internal {\n        totalSupply += 1;\n        balances[msg.sender] += 1;\n    }\n\n    function _withdraw() internal {\n        totalSupply -= 1;\n        balances[msg.sender] -= 1;\n    }\n\n    event Staked(address indexed user, uint256 tokenId);\n    event Withdrawn(address indexed user, uint256 tokenId);\n}",
  "sourcePath": "/root/Proj/staking/contract/contracts/staking.sol",
  "compiler": {
    "name": "solc",
    "version": "0.8.0+commit.c7dfd78e.Emscripten.clang"
  },
  "schemaVersion": "3.1.0",
  "updatedAt": "2022-04-20T06:48:04.409Z",
  "networkType": "ethereum",
  "devdoc": {
    "kind": "dev",
    "methods": {
      "isOwner()": {
        "details": "Returns true if the caller is the current owner."
      },
      "owner()": {
        "details": "Returns the address of the current owner."
      },
      "renounceOwnership()": {
        "details": "Leaves the contract without owner. It will not be possible to call `onlyOwner` functions anymore. Can only be called by the current owner. > Note: Renouncing ownership will leave the contract without an owner, thereby removing any functionality that is only available to the owner."
      },
      "transferOwnership(address)": {
        "details": "Transfers ownership of the contract to a new account (`newOwner`). Can only be called by the current owner."
      }
    },
    "version": 1
  },
  "userdoc": {
    "kind": "user",
    "methods": {},
    "version": 1
  }
}